{
  "transactions": [
    {
      "hash": "0xac23d444bf31485d24cf1d7b4cf6b7b34f674632edd6dc90139b64feaeaf63d9",
      "transactionType": "CREATE",
      "contractName": "MockERC20",
      "contractAddress": "0x7562e05ba8364da1c9a8179cc3a996d5ddf7a98c",
      "function": null,
      "arguments": [
        "Mock WETH",
        "mWETH",
        "18"
      ],
      "transaction": {
        "from": "0x4e9fd5a22e78750a6299ac19885136ee2efa7893",
        "gas": "0xf150f",
        "value": "0x0",
        "input": "0x60e060405234801561000f575f80fd5b50604051610f9d380380610f9d83398101604081905261002e916101a1565b8282825f61003c84826102a2565b50600161004983826102a2565b5060ff81166080524660a05261005d61006c565b60c052506103cd945050505050565b5f7f8b73c3c69bb8fe3d512ecc4cf759cc79239f7b179b0ffacaa9a75d522b39400f5f60405161009c919061035c565b6040805191829003822060208301939093528101919091527fc89efdaa54c0f20c7adf612882df0950f5a951637e0307cdcb4c672f298b8bc660608201524660808201523060a082015260c00160405160208183030381529060405280519060200120905090565b634e487b7160e01b5f52604160045260245ffd5b5f82601f830112610127575f80fd5b81516001600160401b0381111561014057610140610104565b604051601f8201601f19908116603f011681016001600160401b038111828210171561016e5761016e610104565b604052818152838201602001851015610185575f80fd5b8160208501602083015e5f918101602001919091529392505050565b5f805f606084860312156101b3575f80fd5b83516001600160401b038111156101c8575f80fd5b6101d486828701610118565b602086015190945090506001600160401b038111156101f1575f80fd5b6101fd86828701610118565b925050604084015160ff81168114610213575f80fd5b809150509250925092565b600181811c9082168061023257607f821691505b60208210810361025057634e487b7160e01b5f52602260045260245ffd5b50919050565b601f82111561029d57805f5260205f20601f840160051c8101602085101561027b5750805b601f840160051c820191505b8181101561029a575f8155600101610287565b50505b505050565b81516001600160401b038111156102bb576102bb610104565b6102cf816102c9845461021e565b84610256565b6020601f821160018114610301575f83156102ea5750848201515b5f19600385901b1c1916600184901b17845561029a565b5f84815260208120601f198516915b828110156103305787850151825560209485019460019092019101610310565b508482101561034d57868401515f19600387901b60f8161c191681555b50505050600190811b01905550565b5f8083546103698161021e565b6001821680156103805760018114610395576103c2565b60ff19831686528115158202860193506103c2565b865f5260205f205f5b838110156103ba5781548882015260019091019060200161039e565b505081860193505b509195945050505050565b60805160a05160c051610ba66103f75f395f61046f01525f61043a01525f6101590152610ba65ff3fe608060405234801561000f575f80fd5b50600436106100e5575f3560e01c806370a08231116100885780639dc29fac116100635780639dc29fac146101f0578063a9059cbb14610203578063d505accf14610216578063dd62ed3e14610229575f80fd5b806370a08231146101aa5780637ecebe00146101c957806395d89b41146101e8575f80fd5b806323b872dd116100c357806323b872dd14610141578063313ce567146101545780633644e5151461018d57806340c10f1914610195575f80fd5b806306fdde03146100e9578063095ea7b31461010757806318160ddd1461012a575b5f80fd5b6100f1610253565b6040516100fe91906108f2565b60405180910390f35b61011a610115366004610942565b6102de565b60405190151581526020016100fe565b61013360025481565b6040519081526020016100fe565b61011a61014f36600461096a565b61034a565b61017b7f000000000000000000000000000000000000000000000000000000000000000081565b60405160ff90911681526020016100fe565b610133610437565b6101a86101a3366004610942565b610491565b005b6101336101b83660046109a4565b60036020525f908152604090205481565b6101336101d73660046109a4565b60056020525f908152604090205481565b6100f161049f565b6101a86101fe366004610942565b6104ac565b61011a610211366004610942565b6104b6565b6101a86102243660046109c4565b61052c565b610133610237366004610a31565b600460209081525f928352604080842090915290825290205481565b5f805461025f90610a62565b80601f016020809104026020016040519081016040528092919081815260200182805461028b90610a62565b80156102d65780601f106102ad576101008083540402835291602001916102d6565b820191905f5260205f20905b8154815290600101906020018083116102b957829003601f168201915b505050505081565b335f8181526004602090815260408083206001600160a01b038716808552925280832085905551919290917f8c5be1e5ebec7d5bd14f71427d1e84f3dd0314c0f7b2291e5b200ac8c7c3b925906103389086815260200190565b60405180910390a35060015b92915050565b6001600160a01b0383165f9081526004602090815260408083203384529091528120545f1981146103a35761037f8382610aae565b6001600160a01b0386165f9081526004602090815260408083203384529091529020555b6001600160a01b0385165f90815260036020526040812080548592906103ca908490610aae565b90915550506001600160a01b038085165f81815260036020526040908190208054870190555190918716907fddf252ad1be2c89b69c2b068fc378daa952ba7f163c4a11628f55a4df523b3ef906104249087815260200190565b60405180910390a3506001949350505050565b5f7f0000000000000000000000000000000000000000000000000000000000000000461461046c5761046761077e565b905090565b507f000000000000000000000000000000000000000000000000000000000000000090565b61049b8282610816565b5050565b6001805461025f90610a62565b61049b8282610880565b335f908152600360205260408120805483919083906104d6908490610aae565b90915550506001600160a01b0383165f81815260036020526040908190208054850190555133907fddf252ad1be2c89b69c2b068fc378daa952ba7f163c4a11628f55a4df523b3ef906103389086815260200190565b428410156105815760405162461bcd60e51b815260206004820152601760248201527f5045524d49545f444541444c494e455f4558504952454400000000000000000060448201526064015b60405180910390fd5b5f600161058c610437565b6001600160a01b038a81165f8181526005602090815260409182902080546001810190915582517f6e71edae12b1b97f4d1f60370fef10105fa2faae0126114a169c64845d6126c98184015280840194909452938d166060840152608083018c905260a083019390935260c08083018b90528151808403909101815260e08301909152805192019190912061190160f01b6101008301526101028201929092526101228101919091526101420160408051601f1981840301815282825280516020918201205f84529083018083525260ff871690820152606081018590526080810184905260a0016020604051602081039080840390855afa158015610694573d5f803e3d5ffd5b5050604051601f1901519150506001600160a01b038116158015906106ca5750876001600160a01b0316816001600160a01b0316145b6107165760405162461bcd60e51b815260206004820152600e60248201527f494e56414c49445f5349474e45520000000000000000000000000000000000006044820152606401610578565b6001600160a01b039081165f9081526004602090815260408083208a8516808552908352928190208990555188815291928a16917f8c5be1e5ebec7d5bd14f71427d1e84f3dd0314c0f7b2291e5b200ac8c7c3b925910160405180910390a350505050505050565b5f7f8b73c3c69bb8fe3d512ecc4cf759cc79239f7b179b0ffacaa9a75d522b39400f5f6040516107ae9190610ac1565b6040805191829003822060208301939093528101919091527fc89efdaa54c0f20c7adf612882df0950f5a951637e0307cdcb4c672f298b8bc660608201524660808201523060a082015260c00160405160208183030381529060405280519060200120905090565b8060025f8282546108279190610b5d565b90915550506001600160a01b0382165f818152600360209081526040808320805486019055518481527fddf252ad1be2c89b69c2b068fc378daa952ba7f163c4a11628f55a4df523b3ef91015b60405180910390a35050565b6001600160a01b0382165f90815260036020526040812080548392906108a7908490610aae565b90915550506002805482900390556040518181525f906001600160a01b038416907fddf252ad1be2c89b69c2b068fc378daa952ba7f163c4a11628f55a4df523b3ef90602001610874565b602081525f82518060208401528060208501604085015e5f604082850101526040601f19601f83011684010191505092915050565b80356001600160a01b038116811461093d575f80fd5b919050565b5f8060408385031215610953575f80fd5b61095c83610927565b946020939093013593505050565b5f805f6060848603121561097c575f80fd5b61098584610927565b925061099360208501610927565b929592945050506040919091013590565b5f602082840312156109b4575f80fd5b6109bd82610927565b9392505050565b5f805f805f805f60e0888a0312156109da575f80fd5b6109e388610927565b96506109f160208901610927565b95506040880135945060608801359350608088013560ff81168114610a14575f80fd5b9699959850939692959460a0840135945060c09093013592915050565b5f8060408385031215610a42575f80fd5b610a4b83610927565b9150610a5960208401610927565b90509250929050565b600181811c90821680610a7657607f821691505b602082108103610a9457634e487b7160e01b5f52602260045260245ffd5b50919050565b634e487b7160e01b5f52601160045260245ffd5b8181038181111561034457610344610a9a565b5f8083545f8160011c90506001821680610adc57607f821691505b602082108103610afa57634e487b7160e01b5f52602260045260245ffd5b808015610b0e5760018114610b2357610b51565b60ff1984168752821515830287019450610b51565b5f888152602090205f5b84811015610b4957815489820152600190910190602001610b2d565b505082870194505b50929695505050505050565b8082018082111561034457610344610a9a56fea26469706673582212207c0bee1a0cc8b146dc42cc0daae5da4cb6275386417b06f952154fa246d723f264736f6c634300081a0033000000000000000000000000000000000000000000000000000000000000006000000000000000000000000000000000000000000000000000000000000000a0000000000000000000000000000000000000000000000000000000000000001200000000000000000000000000000000000000000000000000000000000000094d6f636b2057455448000000000000000000000000000000000000000000000000000000000000000000000000000000000000000000000000000000000000056d57455448000000000000000000000000000000000000000000000000000000",
        "nonce": "0x6",
        "chainId": "0x515"
      },
      "additionalContracts": [],
      "isFixedGasLimit": false
    },
    {
      "hash": "0x09ef634b8b189e50ae3ae214d35e08c6c9981e562e86963988e7ef42ff586635",
      "transactionType": "CREATE",
      "contractName": "MockERC20",
      "contractAddress": "0x927f446991425b1df8fb7e3879192a84c31c6544",
      "function": null,
      "arguments": [
        "Mock USDC",
        "mUSDC",
        "6"
      ],
      "transaction": {
        "from": "0x4e9fd5a22e78750a6299ac19885136ee2efa7893",
        "gas": "0xf150f",
        "value": "0x0",
        "input": "0x60e060405234801561000f575f80fd5b50604051610f9d380380610f9d83398101604081905261002e916101a1565b8282825f61003c84826102a2565b50600161004983826102a2565b5060ff81166080524660a05261005d61006c565b60c052506103cd945050505050565b5f7f8b73c3c69bb8fe3d512ecc4cf759cc79239f7b179b0ffacaa9a75d522b39400f5f60405161009c919061035c565b6040805191829003822060208301939093528101919091527fc89efdaa54c0f20c7adf612882df0950f5a951637e0307cdcb4c672f298b8bc660608201524660808201523060a082015260c00160405160208183030381529060405280519060200120905090565b634e487b7160e01b5f52604160045260245ffd5b5f82601f830112610127575f80fd5b81516001600160401b0381111561014057610140610104565b604051601f8201601f19908116603f011681016001600160401b038111828210171561016e5761016e610104565b604052818152838201602001851015610185575f80fd5b8160208501602083015e5f918101602001919091529392505050565b5f805f606084860312156101b3575f80fd5b83516001600160401b038111156101c8575f80fd5b6101d486828701610118565b602086015190945090506001600160401b038111156101f1575f80fd5b6101fd86828701610118565b925050604084015160ff81168114610213575f80fd5b809150509250925092565b600181811c9082168061023257607f821691505b60208210810361025057634e487b7160e01b5f52602260045260245ffd5b50919050565b601f82111561029d57805f5260205f20601f840160051c8101602085101561027b5750805b601f840160051c820191505b8181101561029a575f8155600101610287565b50505b505050565b81516001600160401b038111156102bb576102bb610104565b6102cf816102c9845461021e565b84610256565b6020601f821160018114610301575f83156102ea5750848201515b5f19600385901b1c1916600184901b17845561029a565b5f84815260208120601f198516915b828110156103305787850151825560209485019460019092019101610310565b508482101561034d57868401515f19600387901b60f8161c191681555b50505050600190811b01905550565b5f8083546103698161021e565b6001821680156103805760018114610395576103c2565b60ff19831686528115158202860193506103c2565b865f5260205f205f5b838110156103ba5781548882015260019091019060200161039e565b505081860193505b509195945050505050565b60805160a05160c051610ba66103f75f395f61046f01525f61043a01525f6101590152610ba65ff3fe608060405234801561000f575f80fd5b50600436106100e5575f3560e01c806370a08231116100885780639dc29fac116100635780639dc29fac146101f0578063a9059cbb14610203578063d505accf14610216578063dd62ed3e14610229575f80fd5b806370a08231146101aa5780637ecebe00146101c957806395d89b41146101e8575f80fd5b806323b872dd116100c357806323b872dd14610141578063313ce567146101545780633644e5151461018d57806340c10f1914610195575f80fd5b806306fdde03146100e9578063095ea7b31461010757806318160ddd1461012a575b5f80fd5b6100f1610253565b6040516100fe91906108f2565b60405180910390f35b61011a610115366004610942565b6102de565b60405190151581526020016100fe565b61013360025481565b6040519081526020016100fe565b61011a61014f36600461096a565b61034a565b61017b7f000000000000000000000000000000000000000000000000000000000000000081565b60405160ff90911681526020016100fe565b610133610437565b6101a86101a3366004610942565b610491565b005b6101336101b83660046109a4565b60036020525f908152604090205481565b6101336101d73660046109a4565b60056020525f908152604090205481565b6100f161049f565b6101a86101fe366004610942565b6104ac565b61011a610211366004610942565b6104b6565b6101a86102243660046109c4565b61052c565b610133610237366004610a31565b600460209081525f928352604080842090915290825290205481565b5f805461025f90610a62565b80601f016020809104026020016040519081016040528092919081815260200182805461028b90610a62565b80156102d65780601f106102ad576101008083540402835291602001916102d6565b820191905f5260205f20905b8154815290600101906020018083116102b957829003601f168201915b505050505081565b335f8181526004602090815260408083206001600160a01b038716808552925280832085905551919290917f8c5be1e5ebec7d5bd14f71427d1e84f3dd0314c0f7b2291e5b200ac8c7c3b925906103389086815260200190565b60405180910390a35060015b92915050565b6001600160a01b0383165f9081526004602090815260408083203384529091528120545f1981146103a35761037f8382610aae565b6001600160a01b0386165f9081526004602090815260408083203384529091529020555b6001600160a01b0385165f90815260036020526040812080548592906103ca908490610aae565b90915550506001600160a01b038085165f81815260036020526040908190208054870190555190918716907fddf252ad1be2c89b69c2b068fc378daa952ba7f163c4a11628f55a4df523b3ef906104249087815260200190565b60405180910390a3506001949350505050565b5f7f0000000000000000000000000000000000000000000000000000000000000000461461046c5761046761077e565b905090565b507f000000000000000000000000000000000000000000000000000000000000000090565b61049b8282610816565b5050565b6001805461025f90610a62565b61049b8282610880565b335f908152600360205260408120805483919083906104d6908490610aae565b90915550506001600160a01b0383165f81815260036020526040908190208054850190555133907fddf252ad1be2c89b69c2b068fc378daa952ba7f163c4a11628f55a4df523b3ef906103389086815260200190565b428410156105815760405162461bcd60e51b815260206004820152601760248201527f5045524d49545f444541444c494e455f4558504952454400000000000000000060448201526064015b60405180910390fd5b5f600161058c610437565b6001600160a01b038a81165f8181526005602090815260409182902080546001810190915582517f6e71edae12b1b97f4d1f60370fef10105fa2faae0126114a169c64845d6126c98184015280840194909452938d166060840152608083018c905260a083019390935260c08083018b90528151808403909101815260e08301909152805192019190912061190160f01b6101008301526101028201929092526101228101919091526101420160408051601f1981840301815282825280516020918201205f84529083018083525260ff871690820152606081018590526080810184905260a0016020604051602081039080840390855afa158015610694573d5f803e3d5ffd5b5050604051601f1901519150506001600160a01b038116158015906106ca5750876001600160a01b0316816001600160a01b0316145b6107165760405162461bcd60e51b815260206004820152600e60248201527f494e56414c49445f5349474e45520000000000000000000000000000000000006044820152606401610578565b6001600160a01b039081165f9081526004602090815260408083208a8516808552908352928190208990555188815291928a16917f8c5be1e5ebec7d5bd14f71427d1e84f3dd0314c0f7b2291e5b200ac8c7c3b925910160405180910390a350505050505050565b5f7f8b73c3c69bb8fe3d512ecc4cf759cc79239f7b179b0ffacaa9a75d522b39400f5f6040516107ae9190610ac1565b6040805191829003822060208301939093528101919091527fc89efdaa54c0f20c7adf612882df0950f5a951637e0307cdcb4c672f298b8bc660608201524660808201523060a082015260c00160405160208183030381529060405280519060200120905090565b8060025f8282546108279190610b5d565b90915550506001600160a01b0382165f818152600360209081526040808320805486019055518481527fddf252ad1be2c89b69c2b068fc378daa952ba7f163c4a11628f55a4df523b3ef91015b60405180910390a35050565b6001600160a01b0382165f90815260036020526040812080548392906108a7908490610aae565b90915550506002805482900390556040518181525f906001600160a01b038416907fddf252ad1be2c89b69c2b068fc378daa952ba7f163c4a11628f55a4df523b3ef90602001610874565b602081525f82518060208401528060208501604085015e5f604082850101526040601f19601f83011684010191505092915050565b80356001600160a01b038116811461093d575f80fd5b919050565b5f8060408385031215610953575f80fd5b61095c83610927565b946020939093013593505050565b5f805f6060848603121561097c575f80fd5b61098584610927565b925061099360208501610927565b929592945050506040919091013590565b5f602082840312156109b4575f80fd5b6109bd82610927565b9392505050565b5f805f805f805f60e0888a0312156109da575f80fd5b6109e388610927565b96506109f160208901610927565b95506040880135945060608801359350608088013560ff81168114610a14575f80fd5b9699959850939692959460a0840135945060c09093013592915050565b5f8060408385031215610a42575f80fd5b610a4b83610927565b9150610a5960208401610927565b90509250929050565b600181811c90821680610a7657607f821691505b602082108103610a9457634e487b7160e01b5f52602260045260245ffd5b50919050565b634e487b7160e01b5f52601160045260245ffd5b8181038181111561034457610344610a9a565b5f8083545f8160011c90506001821680610adc57607f821691505b602082108103610afa57634e487b7160e01b5f52602260045260245ffd5b808015610b0e5760018114610b2357610b51565b60ff1984168752821515830287019450610b51565b5f888152602090205f5b84811015610b4957815489820152600190910190602001610b2d565b505082870194505b50929695505050505050565b8082018082111561034457610344610a9a56fea26469706673582212207c0bee1a0cc8b146dc42cc0daae5da4cb6275386417b06f952154fa246d723f264736f6c634300081a0033000000000000000000000000000000000000000000000000000000000000006000000000000000000000000000000000000000000000000000000000000000a0000000000000000000000000000000000000000000000000000000000000000600000000000000000000000000000000000000000000000000000000000000094d6f636b2055534443000000000000000000000000000000000000000000000000000000000000000000000000000000000000000000000000000000000000056d55534443000000000000000000000000000000000000000000000000000000",
        "nonce": "0x7",
        "chainId": "0x515"
      },
      "additionalContracts": [],
      "isFixedGasLimit": false
    },
    {
      "hash": "0x14522cf75fa9096253132307e4da29ee20ca2ee35aad4fb585b128686494d960",
      "transactionType": "CALL",
      "contractName": "MockERC20",
      "contractAddress": "0x7562e05ba8364da1c9a8179cc3a996d5ddf7a98c",
      "function": "mint(address,uint256)",
      "arguments": [
        "0x4e9fd5a22E78750a6299AC19885136EE2eFA7893",
        "20000000000000000000"
      ],
      "transaction": {
        "from": "0x4e9fd5a22e78750a6299ac19885136ee2efa7893",
        "to": "0x7562e05ba8364da1c9a8179cc3a996d5ddf7a98c",
        "gas": "0x17086",
        "value": "0x0",
        "input": "0x40c10f190000000000000000000000004e9fd5a22e78750a6299ac19885136ee2efa7893000000000000000000000000000000000000000000000001158e460913d00000",
        "nonce": "0x8",
        "chainId": "0x515"
      },
      "additionalContracts": [],
      "isFixedGasLimit": false
    },
    {
      "hash": "0xe61e4e978a9c59f4619bcdb37217580d889bf4c963bbb5dba387bce1844bdba5",
      "transactionType": "CALL",
      "contractName": "MockERC20",
      "contractAddress": "0x927f446991425b1df8fb7e3879192a84c31c6544",
      "function": "mint(address,uint256)",
      "arguments": [
        "0x4e9fd5a22E78750a6299AC19885136EE2eFA7893",
        "20000000000000000000"
      ],
      "transaction": {
        "from": "0x4e9fd5a22e78750a6299ac19885136ee2efa7893",
        "to": "0x927f446991425b1df8fb7e3879192a84c31c6544",
        "gas": "0x17086",
        "value": "0x0",
        "input": "0x40c10f190000000000000000000000004e9fd5a22e78750a6299ac19885136ee2efa7893000000000000000000000000000000000000000000000001158e460913d00000",
        "nonce": "0x9",
        "chainId": "0x515"
      },
      "additionalContracts": [],
      "isFixedGasLimit": false
    },
    {
      "hash": "0xb82eba98ebe9d78d5c51fd321302bb5e1781a2a7bb278531c8527b65cf6c01a7",
      "transactionType": "CALL",
      "contractName": "MockERC20",
      "contractAddress": "0x7562e05ba8364da1c9a8179cc3a996d5ddf7a98c",
      "function": "approve(address,uint256)",
      "arguments": [
        "0x000000000022D473030F116dDEE9F6B43aC78BA3",
        "115792089237316195423570985008687907853269984665640564039457584007913129639935"
      ],
      "transaction": {
        "from": "0x4e9fd5a22e78750a6299ac19885136ee2efa7893",
        "to": "0x7562e05ba8364da1c9a8179cc3a996d5ddf7a98c",
        "gas": "0x1093b",
        "value": "0x0",
        "input": "0x095ea7b3000000000000000000000000000000000022d473030f116ddee9f6b43ac78ba3ffffffffffffffffffffffffffffffffffffffffffffffffffffffffffffffff",
        "nonce": "0xa",
        "chainId": "0x515"
      },
      "additionalContracts": [],
      "isFixedGasLimit": false
    },
    {
      "hash": "0x6947beb9ad9361e1cf6436dd0e94b3b527fdde071ec86978bc230df00aef6cc7",
      "transactionType": "CALL",
      "contractName": "MockERC20",
      "contractAddress": "0x927f446991425b1df8fb7e3879192a84c31c6544",
      "function": "approve(address,uint256)",
      "arguments": [
        "0x000000000022D473030F116dDEE9F6B43aC78BA3",
        "115792089237316195423570985008687907853269984665640564039457584007913129639935"
      ],
      "transaction": {
        "from": "0x4e9fd5a22e78750a6299ac19885136ee2efa7893",
        "to": "0x927f446991425b1df8fb7e3879192a84c31c6544",
        "gas": "0x1093b",
        "value": "0x0",
        "input": "0x095ea7b3000000000000000000000000000000000022d473030f116ddee9f6b43ac78ba3ffffffffffffffffffffffffffffffffffffffffffffffffffffffffffffffff",
        "nonce": "0xb",
        "chainId": "0x515"
      },
      "additionalContracts": [],
      "isFixedGasLimit": false
    },
    {
      "hash": "0x896948f384844cd8aecfb97de327ec1bbcb93fca26c0b05610e3d87a3226e55e",
      "transactionType": "CALL",
      "contractName": null,
      "contractAddress": "0x000000000022d473030f116ddee9f6b43ac78ba3",
      "function": "approve(address,address,uint160,uint48)",
      "arguments": [
        "0x7562e05BA8364DA1C9A8179cc3A996d5DDF7a98C",
        "0xf969Aee60879C54bAAed9F3eD26147Db216Fd664",
        "1461501637330902918203684832716283019655932542975",
        "281474976710655"
      ],
      "transaction": {
        "from": "0x4e9fd5a22e78750a6299ac19885136ee2efa7893",
        "to": "0x000000000022d473030f116ddee9f6b43ac78ba3",
        "gas": "0x1112d",
        "value": "0x0",
        "input": "0x87517c450000000000000000000000007562e05ba8364da1c9a8179cc3a996d5ddf7a98c000000000000000000000000f969aee60879c54baaed9f3ed26147db216fd664000000000000000000000000ffffffffffffffffffffffffffffffffffffffff0000000000000000000000000000000000000000000000000000ffffffffffff",
        "nonce": "0xc",
        "chainId": "0x515"
      },
      "additionalContracts": [],
      "isFixedGasLimit": false
    },
    {
      "hash": "0xa15dccc8e6c1dee7b2cf7b5e0aac63699764ec6f97b9f83f0358315f5f482eeb",
      "transactionType": "CALL",
      "contractName": null,
      "contractAddress": "0x000000000022d473030f116ddee9f6b43ac78ba3",
      "function": "approve(address,address,uint160,uint48)",
      "arguments": [
        "0x927f446991425b1Df8fb7e3879192A84c31C6544",
        "0xf969Aee60879C54bAAed9F3eD26147Db216Fd664",
        "1461501637330902918203684832716283019655932542975",
        "281474976710655"
      ],
      "transaction": {
        "from": "0x4e9fd5a22e78750a6299ac19885136ee2efa7893",
        "to": "0x000000000022d473030f116ddee9f6b43ac78ba3",
        "gas": "0x1112d",
        "value": "0x0",
        "input": "0x87517c45000000000000000000000000927f446991425b1df8fb7e3879192a84c31c6544000000000000000000000000f969aee60879c54baaed9f3ed26147db216fd664000000000000000000000000ffffffffffffffffffffffffffffffffffffffff0000000000000000000000000000000000000000000000000000ffffffffffff",
        "nonce": "0xd",
        "chainId": "0x515"
      },
      "additionalContracts": [],
      "isFixedGasLimit": false
    },
    {
      "hash": "0xf35b7e40db05a87a5d1300034693d8fddf858bec9d25a4303b98c4606196706e",
      "transactionType": "CALL",
      "contractName": null,
      "contractAddress": "0xf969aee60879c54baaed9f3ed26147db216fd664",
      "function": "initializePool((address,address,uint24,int24,address),uint160)",
      "arguments": [
        "(0x7562e05BA8364DA1C9A8179cc3A996d5DDF7a98C, 0x927f446991425b1Df8fb7e3879192A84c31C6544, 8388608, 60, 0xa0780721F3e29816708028d20D7906cAF44660c0)",
        "79228162514264337593543950336"
      ],
      "transaction": {
        "from": "0x4e9fd5a22e78750a6299ac19885136ee2efa7893",
        "to": "0xf969aee60879c54baaed9f3ed26147db216fd664",
        "gas": "0x145e3",
        "value": "0x0",
        "input": "0xf70204050000000000000000000000007562e05ba8364da1c9a8179cc3a996d5ddf7a98c000000000000000000000000927f446991425b1df8fb7e3879192a84c31c65440000000000000000000000000000000000000000000000000000000000800000000000000000000000000000000000000000000000000000000000000000003c000000000000000000000000a0780721f3e29816708028d20d7906caf44660c00000000000000000000000000000000000000001000000000000000000000000",
        "nonce": "0xe",
        "chainId": "0x515"
      },
      "additionalContracts": [],
      "isFixedGasLimit": false
    },
    {
      "hash": "0xd471eae326037fb4cef498e8ee43e2e0e2b79e4a0f28dfaadcc56634ff007fa6",
      "transactionType": "CALL",
      "contractName": null,
      "contractAddress": "0xf969aee60879c54baaed9f3ed26147db216fd664",
      "function": "modifyLiquidities(bytes,uint256)",
      "arguments": [
        "0x000000000000000000000000000000000000000000000000000000000000004000000000000000000000000000000000000000000000000000000000000000800000000000000000000000000000000000000000000000000000000000000002020d00000000000000000000000000000000000000000000000000000000000000000000000000000000000000000000000000000000000000000000000000020000000000000000000000000000000000000000000000000000000000000040000000000000000000000000000000000000000000000000000000000000020000000000000000000000000000000000000000000000000000000000000001a00000000000000000000000007562e05ba8364da1c9a8179cc3a996d5ddf7a98c000000000000000000000000927f446991425b1df8fb7e3879192a84c31c65440000000000000000000000000000000000000000000000000000000000800000000000000000000000000000000000000000000000000000000000000000003c000000000000000000000000a0780721f3e29816708028d20d7906caf44660c0fffffffffffffffffffffffffffffffffffffffffffffffffffffffffffffda8000000000000000000000000000000000000000000000000000000000000025800000000000000000000000000000000000000000000000908bbbf72a18f9ff7000000000000000000000000000000000000000000000001158e460913d00000000000000000000000000000000000000000000000000001158e460913d000000000000000000000000000004e9fd5a22e78750a6299ac19885136ee2efa78930000000000000000000000000000000000000000000000000000000000000180000000000000000000000000000000000000000000000000000000000000000000000000000000000000000000000000000000000000000000000000000000400000000000000000000000007562e05ba8364da1c9a8179cc3a996d5ddf7a98c000000000000000000000000927f446991425b1df8fb7e3879192a84c31c6544",
        "1773426730"
      ],
      "transaction": {
        "from": "0x4e9fd5a22e78750a6299ac19885136ee2efa7893",
        "to": "0xf969aee60879c54baaed9f3ed26147db216fd664",
        "gas": "0x94615",
        "value": "0x0",
        "input": "0xdd46508f00000000000000000000000000000000000000000000000000000000000000400000000000000000000000000000000000000000000000000000000069b4582a0000000000000000000000000000000000000000000000000000000000000300000000000000000000000000000000000000000000000000000000000000004000000000000000000000000000000000000000000000000000000000000000800000000000000000000000000000000000000000000000000000000000000002020d00000000000000000000000000000000000000000000000000000000000000000000000000000000000000000000000000000000000000000000000000020000000000000000000000000000000000000000000000000000000000000040000000000000000000000000000000000000000000000000000000000000020000000000000000000000000000000000000000000000000000000000000001a00000000000000000000000007562e05ba8364da1c9a8179cc3a996d5ddf7a98c000000000000000000000000927f446991425b1df8fb7e3879192a84c31c65440000000000000000000000000000000000000000000000000000000000800000000000000000000000000000000000000000000000000000000000000000003c000000000000000000000000a0780721f3e29816708028d20d7906caf44660c0fffffffffffffffffffffffffffffffffffffffffffffffffffffffffffffda8000000000000000000000000000000000000000000000000000000000000025800000000000000000000000000000000000000000000000908bbbf72a18f9ff7000000000000000000000000000000000000000000000001158e460913d00000000000000000000000000000000000000000000000000001158e460913d000000000000000000000000000004e9fd5a22e78750a6299ac19885136ee2efa78930000000000000000000000000000000000000000000000000000000000000180000000000000000000000000000000000000000000000000000000000000000000000000000000000000000000000000000000000000000000000000000000400000000000000000000000007562e05ba8364da1c9a8179cc3a996d5ddf7a98c000000000000000000000000927f446991425b1df8fb7e3879192a84c31c6544",
        "nonce": "0xf",
        "chainId": "0x515"
      },
      "additionalContracts": [],
      "isFixedGasLimit": false
    }
  ],
  "receipts": [
    {
      "status": "0x1",
      "cumulativeGasUsed": "0xe1404",
      "logs": [],
      "logsBloom": "0x00000000000000000000000000000000000000000000000000000000000000000000000000000000000000000000000000000000000000000000000000000000000000000000000000000000000000000000000000000000000000000000000000000000000000000000000000000000000000000000000000000000000000000000000000000000000000000000000000000000000000000000000000000000000000000000000000000000000000000000000000000000000000000000000000000000000000000000000000000000000000000000000000000000000000000000000000000000000000000000000000000000000000000000000000000000",
      "type": "0x2",
      "transactionHash": "0xac23d444bf31485d24cf1d7b4cf6b7b34f674632edd6dc90139b64feaeaf63d9",
      "transactionIndex": "0x3",
      "blockHash": "0x0430ff2133276ad0760963a30d52e08841a4ed229cab2580de910e2ae59b14a5",
      "blockNumber": "0x2c6a9c8",
      "gasUsed": "0xb9a0c",
      "effectiveGasPrice": "0x7a121",
      "blobGasUsed": "0xf2300",
      "from": "0x4e9fd5a22e78750a6299ac19885136ee2efa7893",
      "to": null,
      "contractAddress": "0x7562e05ba8364da1c9a8179cc3a996d5ddf7a98c",
      "daFootprintGasScalar": "0x190",
      "l1BaseFeeScalar": "0x7d0",
      "l1BlobBaseFee": "0x1",
      "l1BlobBaseFeeScalar": "0xdbba0",
      "l1Fee": "0xbd1",
      "l1GasPrice": "0xa",
      "l1GasUsed": "0x9b04"
    },
    {
      "status": "0x1",
      "cumulativeGasUsed": "0x19ae10",
      "logs": [],
      "logsBloom": "0x00000000000000000000000000000000000000000000000000000000000000000000000000000000000000000000000000000000000000000000000000000000000000000000000000000000000000000000000000000000000000000000000000000000000000000000000000000000000000000000000000000000000000000000000000000000000000000000000000000000000000000000000000000000000000000000000000000000000000000000000000000000000000000000000000000000000000000000000000000000000000000000000000000000000000000000000000000000000000000000000000000000000000000000000000000000",
      "type": "0x2",
      "transactionHash": "0x14522cf75fa9096253132307e4da29ee20ca2ee35aad4fb585b128686494d960",
      "transactionIndex": "0x4",
      "blockHash": "0x0430ff2133276ad0760963a30d52e08841a4ed229cab2580de910e2ae59b14a5",
      "blockNumber": "0x2c6a9c8",
      "gasUsed": "0xb9a0c",
      "effectiveGasPrice": "0x7a121",
      "blobGasUsed": "0xf2300",
      "from": "0x4e9fd5a22e78750a6299ac19885136ee2efa7893",
      "to": null,
      "contractAddress": "0x927f446991425b1df8fb7e3879192a84c31c6544",
      "daFootprintGasScalar": "0x190",
      "l1BaseFeeScalar": "0x7d0",
      "l1BlobBaseFee": "0x1",
      "l1BlobBaseFeeScalar": "0xdbba0",
      "l1Fee": "0xbd1",
      "l1GasPrice": "0xa",
      "l1GasUsed": "0x9b04"
    },
    {
      "status": "0x1",
      "cumulativeGasUsed": "0x1ab8df",
      "logs": [
        {
          "address": "0x7562e05ba8364da1c9a8179cc3a996d5ddf7a98c",
          "topics": [
            "0xddf252ad1be2c89b69c2b068fc378daa952ba7f163c4a11628f55a4df523b3ef",
            "0x0000000000000000000000000000000000000000000000000000000000000000",
            "0x0000000000000000000000004e9fd5a22e78750a6299ac19885136ee2efa7893"
          ],
          "data": "0x000000000000000000000000000000000000000000000001158e460913d00000",
          "blockHash": "0x0430ff2133276ad0760963a30d52e08841a4ed229cab2580de910e2ae59b14a5",
          "blockNumber": "0x2c6a9c8",
          "blockTimestamp": "0x69b45714",
          "transactionHash": "0xe61e4e978a9c59f4619bcdb37217580d889bf4c963bbb5dba387bce1844bdba5",
          "transactionIndex": "0x5",
          "logIndex": "0x1",
          "removed": false
        }
      ],
      "logsBloom": "0x00000000000000000000000000000000000000000000000000000000000000000000000000000000000000000000002000000000000000000000000000000400000080000000000000000008000000000040000000000000000000000000000000000000020000000000000000000800000000000000000000000010000000000000000000000000000000000000000000000000000000000000000000000000000000000000000000000000000000000000000000000000000008000000000000000002000000000000000000000000000000000000000000000000000020000000000000004000000000000000000000000000000000000000000000000000",
      "type": "0x2",
      "transactionHash": "0xe61e4e978a9c59f4619bcdb37217580d889bf4c963bbb5dba387bce1844bdba5",
      "transactionIndex": "0x5",
      "blockHash": "0x0430ff2133276ad0760963a30d52e08841a4ed229cab2580de910e2ae59b14a5",
      "blockNumber": "0x2c6a9c8",
      "gasUsed": "0x10acf",
      "effectiveGasPrice": "0x7a121",
      "blobGasUsed": "0x9c40",
      "from": "0x4e9fd5a22e78750a6299ac19885136ee2efa7893",
      "to": "0x7562e05ba8364da1c9a8179cc3a996d5ddf7a98c",
      "contractAddress": null,
      "daFootprintGasScalar": "0x190",
      "l1BaseFeeScalar": "0x7d0",
      "l1BlobBaseFee": "0x1",
      "l1BlobBaseFeeScalar": "0xdbba0",
      "l1Fee": "0x7a",
      "l1GasPrice": "0xa",
      "l1GasUsed": "0x640"
    },
    {
      "status": "0x1",
      "cumulativeGasUsed": "0x1bc3ae",
      "logs": [
        {
          "address": "0x927f446991425b1df8fb7e3879192a84c31c6544",
          "topics": [
            "0xddf252ad1be2c89b69c2b068fc378daa952ba7f163c4a11628f55a4df523b3ef",
            "0x0000000000000000000000000000000000000000000000000000000000000000",
            "0x0000000000000000000000004e9fd5a22e78750a6299ac19885136ee2efa7893"
          ],
          "data": "0x000000000000000000000000000000000000000000000001158e460913d00000",
          "blockHash": "0x0430ff2133276ad0760963a30d52e08841a4ed229cab2580de910e2ae59b14a5",
          "blockNumber": "0x2c6a9c8",
          "blockTimestamp": "0x69b45714",
          "transactionHash": "0x09ef634b8b189e50ae3ae214d35e08c6c9981e562e86963988e7ef42ff586635",
          "transactionIndex": "0x6",
          "logIndex": "0x2",
          "removed": false
        }
      ],
      "logsBloom": "0x00000000000000000000000000000000000000000000000000000000000000000000000000000000000000000000002000000000100000100000000000000000000000000000000000000008000000000000000000000000000000000000000000000000020000000000000000000800000000000000000000000010000000000000000000000000000000000000000000000000000000000000000000000000000000000000000000000000000000000000000000000000000008000000000000000002000000000000000000000000000000000000000000000000000120000000000000004000000000000000000000000000000000000000000000000000",
      "type": "0x2",
      "transactionHash": "0x09ef634b8b189e50ae3ae214d35e08c6c9981e562e86963988e7ef42ff586635",
      "transactionIndex": "0x6",
      "blockHash": "0x0430ff2133276ad0760963a30d52e08841a4ed229cab2580de910e2ae59b14a5",
      "blockNumber": "0x2c6a9c8",
      "gasUsed": "0x10acf",
      "effectiveGasPrice": "0x7a121",
      "blobGasUsed": "0x9c40",
      "from": "0x4e9fd5a22e78750a6299ac19885136ee2efa7893",
      "to": "0x927f446991425b1df8fb7e3879192a84c31c6544",
      "contractAddress": null,
      "daFootprintGasScalar": "0x190",
      "l1BaseFeeScalar": "0x7d0",
      "l1BlobBaseFee": "0x1",
      "l1BlobBaseFeeScalar": "0xdbba0",
      "l1Fee": "0x7a",
      "l1GasPrice": "0xa",
      "l1GasUsed": "0x640"
    },
    {
      "status": "0x1",
      "cumulativeGasUsed": "0x20c99f",
      "logs": [
        {
          "address": "0x7562e05ba8364da1c9a8179cc3a996d5ddf7a98c",
          "topics": [
            "0x8c5be1e5ebec7d5bd14f71427d1e84f3dd0314c0f7b2291e5b200ac8c7c3b925",
            "0x0000000000000000000000004e9fd5a22e78750a6299ac19885136ee2efa7893",
            "0x000000000000000000000000000000000022d473030f116ddee9f6b43ac78ba3"
          ],
          "data": "0xffffffffffffffffffffffffffffffffffffffffffffffffffffffffffffffff",
          "blockHash": "0x0430ff2133276ad0760963a30d52e08841a4ed229cab2580de910e2ae59b14a5",
          "blockNumber": "0x2c6a9c8",
          "blockTimestamp": "0x69b45714",
          "transactionHash": "0xb82eba98ebe9d78d5c51fd321302bb5e1781a2a7bb278531c8527b65cf6c01a7",
          "transactionIndex": "0xa",
          "logIndex": "0x6",
          "removed": false
        }
      ],
      "logsBloom": "0x00000000000000000000000000000000000000000000000000000000000000000000000000000000000000000000002000000000800000000000000000200400000080000000000000004000000000000040000000000800000000000000000000000000000000000000000000000000000000000000000000000000000000000000000000000000000000000000000000000000000000000000000000000000020000000000000000000000000000000000000000000000000008000000000000000000000000000000000000000000000000000000000000000000000000000010000000004000000000000000000000000000000000000000000000000000",
      "type": "0x2",
      "transactionHash": "0xb82eba98ebe9d78d5c51fd321302bb5e1781a2a7bb278531c8527b65cf6c01a7",
      "transactionIndex": "0xa",
      "blockHash": "0x0430ff2133276ad0760963a30d52e08841a4ed229cab2580de910e2ae59b14a5",
      "blockNumber": "0x2c6a9c8",
      "gasUsed": "0xb55b",
      "effectiveGasPrice": "0x7a121",
      "blobGasUsed": "0x9c40",
      "from": "0x4e9fd5a22e78750a6299ac19885136ee2efa7893",
      "to": "0x7562e05ba8364da1c9a8179cc3a996d5ddf7a98c",
      "contractAddress": null,
      "daFootprintGasScalar": "0x190",
      "l1BaseFeeScalar": "0x7d0",
      "l1BlobBaseFee": "0x1",
      "l1BlobBaseFeeScalar": "0xdbba0",
      "l1Fee": "0x7a",
      "l1GasPrice": "0xa",
      "l1GasUsed": "0x640"
    },
    {
      "status": "0x1",
      "cumulativeGasUsed": "0x217efa",
      "logs": [
        {
          "address": "0x927f446991425b1df8fb7e3879192a84c31c6544",
          "topics": [
            "0x8c5be1e5ebec7d5bd14f71427d1e84f3dd0314c0f7b2291e5b200ac8c7c3b925",
            "0x0000000000000000000000004e9fd5a22e78750a6299ac19885136ee2efa7893",
            "0x000000000000000000000000000000000022d473030f116ddee9f6b43ac78ba3"
          ],
          "data": "0xffffffffffffffffffffffffffffffffffffffffffffffffffffffffffffffff",
          "blockHash": "0x0430ff2133276ad0760963a30d52e08841a4ed229cab2580de910e2ae59b14a5",
          "blockNumber": "0x2c6a9c8",
          "blockTimestamp": "0x69b45714",
          "transactionHash": "0x896948f384844cd8aecfb97de327ec1bbcb93fca26c0b05610e3d87a3226e55e",
          "transactionIndex": "0xb",
          "logIndex": "0x7",
          "removed": false
        }
      ],
      "logsBloom": "0x00000000000000000000000000000000000000000000000000000000000000000000000000000000000000000000002000000000900000100000000000200000000000000000000000004000000000000000000000000800000000000000000000000000000000000000000000000000000000000000000000000000000000000000000000000000000000000000000000000000000000000000000000000000020000000000000000000000000000000000000000000000000008000000000000000000000000000000000000000000000000000000000000000000000100000010000000004000000000000000000000000000000000000000000000000000",
      "type": "0x2",
      "transactionHash": "0x896948f384844cd8aecfb97de327ec1bbcb93fca26c0b05610e3d87a3226e55e",
      "transactionIndex": "0xb",
      "blockHash": "0x0430ff2133276ad0760963a30d52e08841a4ed229cab2580de910e2ae59b14a5",
      "blockNumber": "0x2c6a9c8",
      "gasUsed": "0xb55b",
      "effectiveGasPrice": "0x7a121",
      "blobGasUsed": "0x9c40",
      "from": "0x4e9fd5a22e78750a6299ac19885136ee2efa7893",
      "to": "0x927f446991425b1df8fb7e3879192a84c31c6544",
      "contractAddress": null,
      "daFootprintGasScalar": "0x190",
      "l1BaseFeeScalar": "0x7d0",
      "l1BlobBaseFee": "0x1",
      "l1BlobBaseFeeScalar": "0xdbba0",
      "l1Fee": "0x7a",
      "l1GasPrice": "0xa",
      "l1GasUsed": "0x640"
    },
    {
      "status": "0x1",
      "cumulativeGasUsed": "0x2239c4",
      "logs": [
        {
          "address": "0x000000000022d473030f116ddee9f6b43ac78ba3",
          "topics": [
            "0xda9fa7c1b00402c17d0161b249b1ab8bbec047c5a52207b9c112deffd817036b",
            "0x0000000000000000000000004e9fd5a22e78750a6299ac19885136ee2efa7893",
            "0x0000000000000000000000007562e05ba8364da1c9a8179cc3a996d5ddf7a98c",
            "0x000000000000000000000000f969aee60879c54baaed9f3ed26147db216fd664"
          ],
          "data": "0x000000000000000000000000ffffffffffffffffffffffffffffffffffffffff0000000000000000000000000000000000000000000000000000ffffffffffff",
          "blockHash": "0x0430ff2133276ad0760963a30d52e08841a4ed229cab2580de910e2ae59b14a5",
          "blockNumber": "0x2c6a9c8",
          "blockTimestamp": "0x69b45714",
          "transactionHash": "0xa15dccc8e6c1dee7b2cf7b5e0aac63699764ec6f97b9f83f0358315f5f482eeb",
          "transactionIndex": "0xc",
          "logIndex": "0x8",
          "removed": false
        }
      ],
      "logsBloom": "0x00010000000000000000000000000000000000000000000000000000000000000800000000000000000000000000002000000000000000000000000000080000000000000000000000000000000000000000000000000000000000001000000000000000000000000000000000000000000000000040000000000000000000000020000400000000000000000000000000000000000000000000000000000000000000000000000000000000000000000000000000000000000008080000000000000000000000000000000000000000000000000000000040000000000000000000040000004000000000000000000000000000000000000000000000002400",
      "type": "0x2",
      "transactionHash": "0xa15dccc8e6c1dee7b2cf7b5e0aac63699764ec6f97b9f83f0358315f5f482eeb",
      "transactionIndex": "0xc",
      "blockHash": "0x0430ff2133276ad0760963a30d52e08841a4ed229cab2580de910e2ae59b14a5",
      "blockNumber": "0x2c6a9c8",
      "gasUsed": "0xbaca",
      "effectiveGasPrice": "0x7a121",
      "blobGasUsed": "0xa8c0",
      "from": "0x4e9fd5a22e78750a6299ac19885136ee2efa7893",
      "to": "0x000000000022d473030f116ddee9f6b43ac78ba3",
      "contractAddress": null,
      "daFootprintGasScalar": "0x190",
      "l1BaseFeeScalar": "0x7d0",
      "l1BlobBaseFee": "0x1",
      "l1BlobBaseFeeScalar": "0xdbba0",
      "l1Fee": "0x84",
      "l1GasPrice": "0xa",
      "l1GasUsed": "0x6cd"
    },
    {
      "status": "0x1",
      "cumulativeGasUsed": "0x22f48e",
      "logs": [
        {
          "address": "0x000000000022d473030f116ddee9f6b43ac78ba3",
          "topics": [
            "0xda9fa7c1b00402c17d0161b249b1ab8bbec047c5a52207b9c112deffd817036b",
            "0x0000000000000000000000004e9fd5a22e78750a6299ac19885136ee2efa7893",
            "0x000000000000000000000000927f446991425b1df8fb7e3879192a84c31c6544",
            "0x000000000000000000000000f969aee60879c54baaed9f3ed26147db216fd664"
          ],
          "data": "0x000000000000000000000000ffffffffffffffffffffffffffffffffffffffff0000000000000000000000000000000000000000000000000000ffffffffffff",
          "blockHash": "0x0430ff2133276ad0760963a30d52e08841a4ed229cab2580de910e2ae59b14a5",
          "blockNumber": "0x2c6a9c8",
          "blockTimestamp": "0x69b45714",
          "transactionHash": "0xd471eae326037fb4cef498e8ee43e2e0e2b79e4a0f28dfaadcc56634ff007fa6",
          "transactionIndex": "0xd",
          "logIndex": "0x9",
          "removed": false
        }
      ],
      "logsBloom": "0x00010000000000000000000000000000000000000000000000000000000000000000000000000000000000000000002000000000000000000000000000080000000000000000000000000000000000000000000000000000000000001000000000000000000000100000000000000000000000000040000000000000000000000020000000000008000000000000000000000000000000000000000000000000000000000000000000000010000000000000000000000000000008080000000000000000000000000000000000000000000000000000000040000000000000000000000000004000000000000000000000000000000000000000000000002400",
      "type": "0x2",
      "transactionHash": "0xd471eae326037fb4cef498e8ee43e2e0e2b79e4a0f28dfaadcc56634ff007fa6",
      "transactionIndex": "0xd",
      "blockHash": "0x0430ff2133276ad0760963a30d52e08841a4ed229cab2580de910e2ae59b14a5",
      "blockNumber": "0x2c6a9c8",
      "gasUsed": "0xbaca",
      "effectiveGasPrice": "0x7a121",
      "blobGasUsed": "0xa8c0",
      "from": "0x4e9fd5a22e78750a6299ac19885136ee2efa7893",
      "to": "0x000000000022d473030f116ddee9f6b43ac78ba3",
      "contractAddress": null,
      "daFootprintGasScalar": "0x190",
      "l1BaseFeeScalar": "0x7d0",
      "l1BlobBaseFee": "0x1",
      "l1BlobBaseFeeScalar": "0xdbba0",
      "l1Fee": "0x84",
      "l1GasPrice": "0xa",
      "l1GasUsed": "0x6cd"
    },
    {
      "status": "0x1",
      "cumulativeGasUsed": "0x23e07e",
      "logs": [
        {
          "address": "0x00b036b58a818b1bc34d502d3fe730db729e62ac",
          "topics": [
            "0xdd466e674ea557f56295e2d0218a125ea4b4f0f6f3307b95f85e6110838d6438",
            "0xecbe967c802de040e1972a42a39105c99111aa1d266cd1a194b10714bc51bad6",
            "0x0000000000000000000000007562e05ba8364da1c9a8179cc3a996d5ddf7a98c",
            "0x000000000000000000000000927f446991425b1df8fb7e3879192a84c31c6544"
          ],
          "data": "0x0000000000000000000000000000000000000000000000000000000000800000000000000000000000000000000000000000000000000000000000000000003c000000000000000000000000a0780721f3e29816708028d20d7906caf44660c000000000000000000000000000000000000000010000000000000000000000000000000000000000000000000000000000000000000000000000000000000000",
          "blockHash": "0x0430ff2133276ad0760963a30d52e08841a4ed229cab2580de910e2ae59b14a5",
          "blockNumber": "0x2c6a9c8",
          "blockTimestamp": "0x69b45714",
          "transactionHash": "0x6947beb9ad9361e1cf6436dd0e94b3b527fdde071ec86978bc230df00aef6cc7",
          "transactionIndex": "0xe",
          "logIndex": "0xa",
          "removed": false
        }
      ],
      "logsBloom": "0x00000000000000000000000000000000000000000000000000000000000000000800000000000000000000000008000000000000000000000000000000000000000000000000000000000000000000000000000000000000000000000000100000000000000000100000000000000000000000000000000000000000010000000000000400000008000000000008000000000001000000000000000000200000000000000000000000000010000000000000000000000000000000000000000000000000000000000000000000000000000000000000000000000000000000000000040000000000000000000000000000000000000002000000000000000010",
      "type": "0x2",
      "transactionHash": "0x6947beb9ad9361e1cf6436dd0e94b3b527fdde071ec86978bc230df00aef6cc7",
      "transactionIndex": "0xe",
      "blockHash": "0x0430ff2133276ad0760963a30d52e08841a4ed229cab2580de910e2ae59b14a5",
      "blockNumber": "0x2c6a9c8",
      "gasUsed": "0xebf0",
      "effectiveGasPrice": "0x7a121",
      "blobGasUsed": "0xd7a0",
      "from": "0x4e9fd5a22e78750a6299ac19885136ee2efa7893",
      "to": "0xf969aee60879c54baaed9f3ed26147db216fd664",
      "contractAddress": null,
      "daFootprintGasScalar": "0x190",
      "l1BaseFeeScalar": "0x7d0",
      "l1BlobBaseFee": "0x1",
      "l1BlobBaseFeeScalar": "0xdbba0",
      "l1Fee": "0xa9",
      "l1GasPrice": "0xa",
      "l1GasUsed": "0x8ae"
    },
    {
      "status": "0x1",
      "cumulativeGasUsed": "0x2a974a",
      "logs": [
        {
          "address": "0xf969aee60879c54baaed9f3ed26147db216fd664",
          "topics": [
            "0xddf252ad1be2c89b69c2b068fc378daa952ba7f163c4a11628f55a4df523b3ef",
            "0x0000000000000000000000000000000000000000000000000000000000000000",
            "0x0000000000000000000000004e9fd5a22e78750a6299ac19885136ee2efa7893",
            "0x0000000000000000000000000000000000000000000000000000000000001bff"
          ],
          "data": "0x",
          "blockHash": "0x0430ff2133276ad0760963a30d52e08841a4ed229cab2580de910e2ae59b14a5",
          "blockNumber": "0x2c6a9c8",
          "blockTimestamp": "0x69b45714",
          "transactionHash": "0xf35b7e40db05a87a5d1300034693d8fddf858bec9d25a4303b98c4606196706e",
          "transactionIndex": "0xf",
          "logIndex": "0xb",
          "removed": false
        },
        {
          "address": "0x00b036b58a818b1bc34d502d3fe730db729e62ac",
          "topics": [
            "0xf208f4912782fd25c7f114ca3723a2d5dd6f3bcc3ac8db5af63baa85f711d5ec",
            "0xecbe967c802de040e1972a42a39105c99111aa1d266cd1a194b10714bc51bad6",
            "0x000000000000000000000000f969aee60879c54baaed9f3ed26147db216fd664"
          ],
          "data": "0xfffffffffffffffffffffffffffffffffffffffffffffffffffffffffffffda8000000000000000000000000000000000000000000000000000000000000025800000000000000000000000000000000000000000000000908bbbf72a18f9ff70000000000000000000000000000000000000000000000000000000000001bff",
          "blockHash": "0x0430ff2133276ad0760963a30d52e08841a4ed229cab2580de910e2ae59b14a5",
          "blockNumber": "0x2c6a9c8",
          "blockTimestamp": "0x69b45714",
          "transactionHash": "0xf35b7e40db05a87a5d1300034693d8fddf858bec9d25a4303b98c4606196706e",
          "transactionIndex": "0xf",
          "logIndex": "0xc",
          "removed": false
        },
        {
          "address": "0x7562e05ba8364da1c9a8179cc3a996d5ddf7a98c",
          "topics": [
            "0xddf252ad1be2c89b69c2b068fc378daa952ba7f163c4a11628f55a4df523b3ef",
            "0x0000000000000000000000004e9fd5a22e78750a6299ac19885136ee2efa7893",
            "0x00000000000000000000000000b036b58a818b1bc34d502d3fe730db729e62ac"
          ],
          "data": "0x000000000000000000000000000000000000000000000000445925ee68fe520a",
          "blockHash": "0x0430ff2133276ad0760963a30d52e08841a4ed229cab2580de910e2ae59b14a5",
          "blockNumber": "0x2c6a9c8",
          "blockTimestamp": "0x69b45714",
          "transactionHash": "0xf35b7e40db05a87a5d1300034693d8fddf858bec9d25a4303b98c4606196706e",
          "transactionIndex": "0xf",
          "logIndex": "0xd",
          "removed": false
        },
        {
          "address": "0x927f446991425b1df8fb7e3879192a84c31c6544",
          "topics": [
            "0xddf252ad1be2c89b69c2b068fc378daa952ba7f163c4a11628f55a4df523b3ef",
            "0x0000000000000000000000004e9fd5a22e78750a6299ac19885136ee2efa7893",
            "0x00000000000000000000000000b036b58a818b1bc34d502d3fe730db729e62ac"
          ],
          "data": "0x000000000000000000000000000000000000000000000000445925ee68fe520a",
          "blockHash": "0x0430ff2133276ad0760963a30d52e08841a4ed229cab2580de910e2ae59b14a5",
          "blockNumber": "0x2c6a9c8",
          "blockTimestamp": "0x69b45714",
          "transactionHash": "0xf35b7e40db05a87a5d1300034693d8fddf858bec9d25a4303b98c4606196706e",
          "transactionIndex": "0xf",
          "logIndex": "0xe",
          "removed": false
        }
      ],
      "logsBloom": "0x00000000000000000000000000000000000000000000000000000000000800000000000000000000000000000008002000000000101000100000000000000400000080000000000000000008000000000040000000000000000000001000100000000000020000000000000000004800000000000040000000000010010000000000000001000000000000000008000000000000000000000000000000008000000004000000000000000000000000000800000008000020000008000000000000000002080000000000000000000000000000000000000000000000000120004000000000004000000000000000000004000000000002000000000000002010",
      "type": "0x2",
      "transactionHash": "0xf35b7e40db05a87a5d1300034693d8fddf858bec9d25a4303b98c4606196706e",
      "transactionIndex": "0xf",
      "blockHash": "0x0430ff2133276ad0760963a30d52e08841a4ed229cab2580de910e2ae59b14a5",
      "blockNumber": "0x2c6a9c8",
      "gasUsed": "0x6b6cc",
      "effectiveGasPrice": "0x7a121",
      "blobGasUsed": "0x19320",
      "from": "0x4e9fd5a22e78750a6299ac19885136ee2efa7893",
      "to": "0xf969aee60879c54baaed9f3ed26147db216fd664",
      "contractAddress": null,
      "daFootprintGasScalar": "0x190",
      "l1BaseFeeScalar": "0x7d0",
      "l1BlobBaseFee": "0x1",
      "l1BlobBaseFeeScalar": "0xdbba0",
      "l1Fee": "0x13b",
      "l1GasPrice": "0xa",
      "l1GasUsed": "0x1028"
    }
  ],
  "libraries": [],
  "pending": [],
  "returns": {},
  "timestamp": 1773426452094,
  "chain": 1301,
  "commit": "4a2fc8d"
}